{
  "_format": "hh3-artifact-1",
  "contractName": "ResumeStorage",
  "sourceName": "contracts/ResumeStorage.sol",
  "abi": [
    {
      "anonymous": false,
      "inputs": [
        {
          "indexed": true,
          "internalType": "address",
          "name": "user",
          "type": "address"
        },
        {
          "indexed": false,
          "internalType": "string",
          "name": "resumeCID",
          "type": "string"
        }
      ],
      "name": "ResumeUpdated",
      "type": "event"
    },
    {
      "inputs": [
        {
          "internalType": "address",
          "name": "user",
          "type": "address"
        }
      ],
      "name": "getResume",
      "outputs": [
        {
          "internalType": "string",
          "name": "",
          "type": "string"
        }
      ],
      "stateMutability": "view",
      "type": "function"
    },
    {
      "inputs": [
        {
          "internalType": "string",
          "name": "resumeCID",
          "type": "string"
        }
      ],
      "name": "setResume",
      "outputs": [],
      "stateMutability": "nonpayable",
      "type": "function"
    }
  ],
  "bytecode": "0x6080604052348015600e575f5ffd5b506104058061001c5f395ff3fe608060405234801561000f575f5ffd5b5060043610610033575f3560e01c8062a4234714610037578063311a5ae51461004c575b5f5ffd5b61004a61004536600461017f565b610075565b005b61005f61005a3660046101ed565b6100d6565b60405161006c919061021a565b60405180910390f35b335f90815260208190526040902061008e8284836102e7565b50336001600160a01b03167f9ded58a73b33a1960374f0ee4f7801a0f7922cdc1f0779b4b4d00cd63863f10683836040516100ca9291906103a1565b60405180910390a25050565b6001600160a01b0381165f9081526020819052604090208054606091906100fc90610263565b80601f016020809104026020016040519081016040528092919081815260200182805461012890610263565b80156101735780601f1061014a57610100808354040283529160200191610173565b820191905f5260205f20905b81548152906001019060200180831161015657829003601f168201915b50505050509050919050565b5f5f60208385031215610190575f5ffd5b823567ffffffffffffffff8111156101a6575f5ffd5b8301601f810185136101b6575f5ffd5b803567ffffffffffffffff8111156101cc575f5ffd5b8560208284010111156101dd575f5ffd5b6020919091019590945092505050565b5f602082840312156101fd575f5ffd5b81356001600160a01b0381168114610213575f5ffd5b9392505050565b602081525f82518060208401528060208501604085015e5f604082850101526040601f19601f83011684010191505092915050565b634e487b7160e01b5f52604160045260245ffd5b600181811c9082168061027757607f821691505b60208210810361029557634e487b7160e01b5f52602260045260245ffd5b50919050565b601f8211156102e257805f5260205f20601f840160051c810160208510156102c05750805b601f840160051c820191505b818110156102df575f81556001016102cc565b50505b505050565b67ffffffffffffffff8311156102ff576102ff61024f565b6103138361030d8354610263565b8361029b565b5f601f841160018114610344575f851561032d5750838201355b5f19600387901b1c1916600186901b1783556102df565b5f83815260208120601f198716915b828110156103735786850135825560209485019460019092019101610353565b508682101561038f575f1960f88860031b161c19848701351681555b505060018560011b0183555050505050565b60208152816020820152818360408301375f818301604090810191909152601f909201601f1916010191905056fea2646970667358221220904039fea98daecfbf214160f1a634c5e07c3d2cbc8f64869f84832241bf555a64736f6c634300081c0033",
  "linkReferences": {},
  "deployedLinkReferences": {},
  "immutableReferences": {},
  "inputSourceName": "project/contracts/ResumeStorage.sol",
  "buildInfoId": "solc-0_8_28-c243c791230eef05c529cf810d24e8b8dfd8dbc6"
}