{
  "_format": "hh3-artifact-1",
  "contractName": "ResumeStorage",
  "sourceName": "contracts/ResumeStorage.sol",
  "abi": [
    {
      "anonymous": false,
      "inputs": [
        {
          "indexed": true,
          "internalType": "address",
          "name": "user",
          "type": "address"
        },
        {
          "indexed": false,
          "internalType": "string",
          "name": "resumeCID",
          "type": "string"
        }
      ],
      "name": "ResumeUpdated",
      "type": "event"
    },
    {
      "inputs": [
        {
          "internalType": "address",
          "name": "user",
          "type": "address"
        }
      ],
      "name": "getResume",
      "outputs": [
        {
          "internalType": "string",
          "name": "",
          "type": "string"
        }
      ],
      "stateMutability": "view",
      "type": "function"
    },
    {
      "inputs": [
        {
          "internalType": "string",
          "name": "resumeCID",
          "type": "string"
        }
      ],
      "name": "setResume",
      "outputs": [],
      "stateMutability": "nonpayable",
      "type": "function"
    }
  ],
  "bytecode": "0x6080604052348015600e575f5ffd5b506107548061001c5f395ff3fe608060405234801561000f575f5ffd5b5060043610610033575f3560e01c8062a4234714610037578063311a5ae514610053575b5f5ffd5b610051600480360381019061004c9190610258565b610083565b005b61006d600480360381019061006891906102fd565b610123565b60405161007a9190610398565b60405180910390f35b81815f5f3373ffffffffffffffffffffffffffffffffffffffff1673ffffffffffffffffffffffffffffffffffffffff1681526020019081526020015f2091826100ce9291906105f5565b503373ffffffffffffffffffffffffffffffffffffffff167f9ded58a73b33a1960374f0ee4f7801a0f7922cdc1f0779b4b4d00cd63863f10683836040516101179291906106fc565b60405180910390a25050565b60605f5f8373ffffffffffffffffffffffffffffffffffffffff1673ffffffffffffffffffffffffffffffffffffffff1681526020019081526020015f20805461016c9061041c565b80601f01602080910402602001604051908101604052809291908181526020018280546101989061041c565b80156101e35780601f106101ba576101008083540402835291602001916101e3565b820191905f5260205f20905b8154815290600101906020018083116101c657829003601f168201915b50505050509050919050565b5f5ffd5b5f5ffd5b5f5ffd5b5f5ffd5b5f5ffd5b5f5f83601f840112610218576102176101f7565b5b8235905067ffffffffffffffff811115610235576102346101fb565b5b602083019150836001820283011115610251576102506101ff565b5b9250929050565b5f5f6020838503121561026e5761026d6101ef565b5b5f83013567ffffffffffffffff81111561028b5761028a6101f3565b5b61029785828601610203565b92509250509250929050565b5f73ffffffffffffffffffffffffffffffffffffffff82169050919050565b5f6102cc826102a3565b9050919050565b6102dc816102c2565b81146102e6575f5ffd5b50565b5f813590506102f7816102d3565b92915050565b5f60208284031215610312576103116101ef565b5b5f61031f848285016102e9565b91505092915050565b5f81519050919050565b5f82825260208201905092915050565b8281835e5f83830152505050565b5f601f19601f8301169050919050565b5f61036a82610328565b6103748185610332565b9350610384818560208601610342565b61038d81610350565b840191505092915050565b5f6020820190508181035f8301526103b08184610360565b905092915050565b5f82905092915050565b7f4e487b71000000000000000000000000000000000000000000000000000000005f52604160045260245ffd5b7f4e487b71000000000000000000000000000000000000000000000000000000005f52602260045260245ffd5b5f600282049050600182168061043357607f821691505b602082108103610446576104456103ef565b5b50919050565b5f819050815f5260205f209050919050565b5f6020601f8301049050919050565b5f82821b905092915050565b5f600883026104a87fffffffffffffffffffffffffffffffffffffffffffffffffffffffffffffffff8261046d565b6104b2868361046d565b95508019841693508086168417925050509392505050565b5f819050919050565b5f819050919050565b5f6104f66104f16104ec846104ca565b6104d3565b6104ca565b9050919050565b5f819050919050565b61050f836104dc565b61052361051b826104fd565b848454610479565b825550505050565b5f5f905090565b61053a61052b565b610545818484610506565b505050565b5b818110156105685761055d5f82610532565b60018101905061054b565b5050565b601f8211156105ad5761057e8161044c565b6105878461045e565b81016020851015610596578190505b6105aa6105a28561045e565b83018261054a565b50505b505050565b5f82821c905092915050565b5f6105cd5f19846008026105b2565b1980831691505092915050565b5f6105e583836105be565b9150826002028217905092915050565b6105ff83836103b8565b67ffffffffffffffff811115610618576106176103c2565b5b610622825461041c565b61062d82828561056c565b5f601f83116001811461065a575f8415610648578287013590505b61065285826105da565b8655506106b9565b601f1984166106688661044c565b5f5b8281101561068f5784890135825560018201915060208501945060208101905061066a565b868310156106ac57848901356106a8601f8916826105be565b8355505b6001600288020188555050505b50505050505050565b828183375f83830152505050565b5f6106db8385610332565b93506106e88385846106c2565b6106f183610350565b840190509392505050565b5f6020820190508181035f8301526107158184866106d0565b9050939250505056fea2646970667358221220e8ab68b9886419a73b58b3dee714e03bb364e2e50eafd8d71d6f068fb931f30164736f6c634300081c0033",
  "linkReferences": {},
  "deployedLinkReferences": {},
  "immutableReferences": {},
  "inputSourceName": "project/contracts/ResumeStorage.sol",
  "buildInfoId": "solc-0_8_28-aab9bca72eda09d17a220e3d088164d376b5985f"
}